{
  "_format": "hh-sol-artifact-1",
  "contractName": "UnsafeV1",
  "sourceName": "contracts/Unsafe_V1.sol",
  "abi": [
    {
      "inputs": [
        {
          "internalType": "uint256",
          "name": "_x",
          "type": "uint256"
        }
      ],
      "stateMutability": "nonpayable",
      "type": "constructor"
    },
    {
      "anonymous": false,
      "inputs": [
        {
          "indexed": false,
          "internalType": "uint8",
          "name": "version",
          "type": "uint8"
        }
      ],
      "name": "Initialized",
      "type": "event"
    },
    {
      "inputs": [],
      "name": "MY_CONSTANT",
      "outputs": [
        {
          "internalType": "uint256",
          "name": "",
          "type": "uint256"
        }
      ],
      "stateMutability": "view",
      "type": "function"
    },
    {
      "inputs": [],
      "name": "MY_IMMUTABLE",
      "outputs": [
        {
          "internalType": "uint256",
          "name": "",
          "type": "uint256"
        }
      ],
      "stateMutability": "view",
      "type": "function"
    },
    {
      "inputs": [
        {
          "internalType": "uint256",
          "name": "_val",
          "type": "uint256"
        }
      ],
      "name": "initialize",
      "outputs": [],
      "stateMutability": "nonpayable",
      "type": "function"
    },
    {
      "inputs": [],
      "name": "kill",
      "outputs": [],
      "stateMutability": "nonpayable",
      "type": "function"
    },
    {
      "inputs": [],
      "name": "owner",
      "outputs": [
        {
          "internalType": "address",
          "name": "",
          "type": "address"
        }
      ],
      "stateMutability": "view",
      "type": "function"
    },
    {
      "inputs": [],
      "name": "start",
      "outputs": [
        {
          "internalType": "uint256",
          "name": "",
          "type": "uint256"
        }
      ],
      "stateMutability": "view",
      "type": "function"
    },
    {
      "inputs": [],
      "name": "val",
      "outputs": [
        {
          "internalType": "uint256",
          "name": "",
          "type": "uint256"
        }
      ],
      "stateMutability": "view",
      "type": "function"
    }
  ],
  "bytecode": "0x60a060405234801561001057600080fd5b506040516106533803806106538339818101604052810190610032919061007b565b8060808181525050506100a8565b600080fd5b6000819050919050565b61005881610045565b811461006357600080fd5b50565b6000815190506100758161004f565b92915050565b60006020828403121561009157610090610040565b5b600061009f84828501610066565b91505092915050565b6080516105906100c3600039600061014001526105906000f3fe608060405234801561001057600080fd5b506004361061007d5760003560e01c80638da5cb5b1161005b5780638da5cb5b146100c8578063be9a6555146100e6578063f8a874bf14610104578063fe4b84df146101225761007d565b80633bc72e5e146100825780633c6bb436146100a057806341c0e1b5146100be575b600080fd5b61008a61013e565b6040516100979190610375565b60405180910390f35b6100a8610162565b6040516100b59190610375565b60405180910390f35b6100c6610168565b005b6100d0610182565b6040516100dd91906103d1565b60405180910390f35b6100ee6101a8565b6040516100fb9190610375565b60405180910390f35b61010c6101ae565b6040516101199190610375565b60405180910390f35b61013c6004803603810190610137919061041d565b6101b3565b005b7f000000000000000000000000000000000000000000000000000000000000000081565b60015481565b600073ffffffffffffffffffffffffffffffffffffffff16ff5b600060029054906101000a900473ffffffffffffffffffffffffffffffffffffffff1681565b60025481565b606f81565b60008060019054906101000a900460ff161590508080156101e45750600160008054906101000a900460ff1660ff16105b8061021157506101f330610339565b1580156102105750600160008054906101000a900460ff1660ff16145b5b610250576040517f08c379a0000000000000000000000000000000000000000000000000000000008152600401610247906104cd565b60405180910390fd5b60016000806101000a81548160ff021916908360ff160217905550801561028d576001600060016101000a81548160ff0219169083151502179055505b33600060026101000a81548173ffffffffffffffffffffffffffffffffffffffff021916908373ffffffffffffffffffffffffffffffffffffffff160217905550816001819055504260028190555080156103355760008060016101000a81548160ff0219169083151502179055507f7f26b83ff96e1f2b6a682f133852f6798a09c465da95921460cefb3847402498600160405161032c919061053f565b60405180910390a15b5050565b6000808273ffffffffffffffffffffffffffffffffffffffff163b119050919050565b6000819050919050565b61036f8161035c565b82525050565b600060208201905061038a6000830184610366565b92915050565b600073ffffffffffffffffffffffffffffffffffffffff82169050919050565b60006103bb82610390565b9050919050565b6103cb816103b0565b82525050565b60006020820190506103e660008301846103c2565b92915050565b600080fd5b6103fa8161035c565b811461040557600080fd5b50565b600081359050610417816103f1565b92915050565b600060208284031215610433576104326103ec565b5b600061044184828501610408565b91505092915050565b600082825260208201905092915050565b7f496e697469616c697a61626c653a20636f6e747261637420697320616c72656160008201527f647920696e697469616c697a6564000000000000000000000000000000000000602082015250565b60006104b7602e8361044a565b91506104c28261045b565b604082019050919050565b600060208201905081810360008301526104e6816104aa565b9050919050565b6000819050919050565b600060ff82169050919050565b6000819050919050565b600061052961052461051f846104ed565b610504565b6104f7565b9050919050565b6105398161050e565b82525050565b60006020820190506105546000830184610530565b9291505056fea264697066735822122015b0796b7672edd9914f6b282880bbb3d4c651b24e053b63583f0157be581aaa64736f6c634300080a0033",
  "linkReferences": {},
  "deployedLinkReferences": {}
}