{
  "_format": "hh-sol-artifact-1",
  "contractName": "MyTokenUpgrade",
  "sourceName": "contracts/MycontractsUpgrade.sol",
  "abi": [
    {
      "anonymous": false,
      "inputs": [
        {
          "indexed": true,
          "internalType": "address",
          "name": "owner",
          "type": "address"
        },
        {
          "indexed": true,
          "internalType": "address",
          "name": "spender",
          "type": "address"
        },
        {
          "indexed": false,
          "internalType": "uint256",
          "name": "value",
          "type": "uint256"
        }
      ],
      "name": "Approval",
      "type": "event"
    },
    {
      "anonymous": false,
      "inputs": [
        {
          "indexed": false,
          "internalType": "uint8",
          "name": "version",
          "type": "uint8"
        }
      ],
      "name": "Initialized",
      "type": "event"
    },
    {
      "anonymous": false,
      "inputs": [
        {
          "indexed": true,
          "internalType": "address",
          "name": "previousOwner",
          "type": "address"
        },
        {
          "indexed": true,
          "internalType": "address",
          "name": "newOwner",
          "type": "address"
        }
      ],
      "name": "OwnershipTransferred",
      "type": "event"
    },
    {
      "anonymous": false,
      "inputs": [
        {
          "indexed": true,
          "internalType": "address",
          "name": "from",
          "type": "address"
        },
        {
          "indexed": true,
          "internalType": "address",
          "name": "to",
          "type": "address"
        },
        {
          "indexed": false,
          "internalType": "uint256",
          "name": "value",
          "type": "uint256"
        }
      ],
      "name": "Transfer",
      "type": "event"
    },
    {
      "inputs": [
        {
          "internalType": "address",
          "name": "owner",
          "type": "address"
        },
        {
          "internalType": "address",
          "name": "spender",
          "type": "address"
        }
      ],
      "name": "allowance",
      "outputs": [
        {
          "internalType": "uint256",
          "name": "",
          "type": "uint256"
        }
      ],
      "stateMutability": "view",
      "type": "function"
    },
    {
      "inputs": [
        {
          "internalType": "address",
          "name": "spender",
          "type": "address"
        },
        {
          "internalType": "uint256",
          "name": "amount",
          "type": "uint256"
        }
      ],
      "name": "approve",
      "outputs": [
        {
          "internalType": "bool",
          "name": "",
          "type": "bool"
        }
      ],
      "stateMutability": "nonpayable",
      "type": "function"
    },
    {
      "inputs": [
        {
          "internalType": "address",
          "name": "account",
          "type": "address"
        }
      ],
      "name": "balanceOf",
      "outputs": [
        {
          "internalType": "uint256",
          "name": "",
          "type": "uint256"
        }
      ],
      "stateMutability": "view",
      "type": "function"
    },
    {
      "inputs": [],
      "name": "construct",
      "outputs": [],
      "stateMutability": "nonpayable",
      "type": "function"
    },
    {
      "inputs": [],
      "name": "decimals",
      "outputs": [
        {
          "internalType": "uint8",
          "name": "",
          "type": "uint8"
        }
      ],
      "stateMutability": "view",
      "type": "function"
    },
    {
      "inputs": [
        {
          "internalType": "address",
          "name": "spender",
          "type": "address"
        },
        {
          "internalType": "uint256",
          "name": "subtractedValue",
          "type": "uint256"
        }
      ],
      "name": "decreaseAllowance",
      "outputs": [
        {
          "internalType": "bool",
          "name": "",
          "type": "bool"
        }
      ],
      "stateMutability": "nonpayable",
      "type": "function"
    },
    {
      "inputs": [
        {
          "internalType": "address",
          "name": "spender",
          "type": "address"
        },
        {
          "internalType": "uint256",
          "name": "addedValue",
          "type": "uint256"
        }
      ],
      "name": "increaseAllowance",
      "outputs": [
        {
          "internalType": "bool",
          "name": "",
          "type": "bool"
        }
      ],
      "stateMutability": "nonpayable",
      "type": "function"
    },
    {
      "inputs": [
        {
          "internalType": "address",
          "name": "to",
          "type": "address"
        },
        {
          "internalType": "uint256",
          "name": "amount",
          "type": "uint256"
        }
      ],
      "name": "mint",
      "outputs": [],
      "stateMutability": "nonpayable",
      "type": "function"
    },
    {
      "inputs": [],
      "name": "name",
      "outputs": [
        {
          "internalType": "string",
          "name": "",
          "type": "string"
        }
      ],
      "stateMutability": "view",
      "type": "function"
    },
    {
      "inputs": [],
      "name": "owner",
      "outputs": [
        {
          "internalType": "address",
          "name": "",
          "type": "address"
        }
      ],
      "stateMutability": "view",
      "type": "function"
    },
    {
      "inputs": [],
      "name": "renounceOwnership",
      "outputs": [],
      "stateMutability": "nonpayable",
      "type": "function"
    },
    {
      "inputs": [],
      "name": "symbol",
      "outputs": [
        {
          "internalType": "string",
          "name": "",
          "type": "string"
        }
      ],
      "stateMutability": "view",
      "type": "function"
    },
    {
      "inputs": [],
      "name": "totalSupply",
      "outputs": [
        {
          "internalType": "uint256",
          "name": "",
          "type": "uint256"
        }
      ],
      "stateMutability": "view",
      "type": "function"
    },
    {
      "inputs": [
        {
          "internalType": "address",
          "name": "to",
          "type": "address"
        },
        {
          "internalType": "uint256",
          "name": "amount",
          "type": "uint256"
        }
      ],
      "name": "transfer",
      "outputs": [
        {
          "internalType": "bool",
          "name": "",
          "type": "bool"
        }
      ],
      "stateMutability": "nonpayable",
      "type": "function"
    },
    {
      "inputs": [
        {
          "internalType": "address",
          "name": "from",
          "type": "address"
        },
        {
          "internalType": "address",
          "name": "to",
          "type": "address"
        },
        {
          "internalType": "uint256",
          "name": "amount",
          "type": "uint256"
        }
      ],
      "name": "transferFrom",
      "outputs": [
        {
          "internalType": "bool",
          "name": "",
          "type": "bool"
        }
      ],
      "stateMutability": "nonpayable",
      "type": "function"
    },
    {
      "inputs": [
        {
          "internalType": "address",
          "name": "newOwner",
          "type": "address"
        }
      ],
      "name": "transferOwnership",
      "outputs": [],
      "stateMutability": "nonpayable",
      "type": "function"
    }
  ],
  "bytecode": "0x608060405234801561001057600080fd5b50611f92806100206000396000f3fe608060405234801561001057600080fd5b50600436106101005760003560e01c8063715018a611610097578063a457c2d711610066578063a457c2d71461028b578063a9059cbb146102bb578063dd62ed3e146102eb578063f2fde38b1461031b57610100565b8063715018a61461023b5780638da5cb5b1461024557806394b91deb1461026357806395d89b411461026d57610100565b8063313ce567116100d3578063313ce567146101a157806339509351146101bf57806340c10f19146101ef57806370a082311461020b57610100565b806306fdde0314610105578063095ea7b31461012357806318160ddd1461015357806323b872dd14610171575b600080fd5b61010d610337565b60405161011a91906112b4565b60405180910390f35b61013d6004803603810190610138919061136f565b6103c9565b60405161014a91906113ca565b60405180910390f35b61015b6103ec565b60405161016891906113f4565b60405180910390f35b61018b6004803603810190610186919061140f565b6103f6565b60405161019891906113ca565b60405180910390f35b6101a9610425565b6040516101b6919061147e565b60405180910390f35b6101d960048036038101906101d4919061136f565b61042e565b6040516101e691906113ca565b60405180910390f35b6102096004803603810190610204919061136f565b610465565b005b61022560048036038101906102209190611499565b61047b565b60405161023291906113f4565b60405180910390f35b6102436104c4565b005b61024d6104d8565b60405161025a91906114d5565b60405180910390f35b61026b610502565b005b6102756106b4565b60405161028291906112b4565b60405180910390f35b6102a560048036038101906102a0919061136f565b610746565b6040516102b291906113ca565b60405180910390f35b6102d560048036038101906102d0919061136f565b6107bd565b6040516102e291906113ca565b60405180910390f35b610305600480360381019061030091906114f0565b6107e0565b60405161031291906113f4565b60405180910390f35b61033560048036038101906103309190611499565b610867565b005b6060603680546103469061155f565b80601f01602080910402602001604051908101604052809291908181526020018280546103729061155f565b80156103bf5780601f10610394576101008083540402835291602001916103bf565b820191906000526020600020905b8154815290600101906020018083116103a257829003601f168201915b5050505050905090565b6000806103d46108ea565b90506103e18185856108f2565b600191505092915050565b6000603554905090565b6000806104016108ea565b905061040e858285610abb565b610419858585610b47565b60019150509392505050565b60006012905090565b6000806104396108ea565b905061045a81858561044b85896107e0565b61045591906115bf565b6108f2565b600191505092915050565b61046d610dc9565b6104778282610e47565b5050565b6000603360008373ffffffffffffffffffffffffffffffffffffffff1673ffffffffffffffffffffffffffffffffffffffff168152602001908152602001600020549050919050565b6104cc610dc9565b6104d66000610fa7565b565b6000606560009054906101000a900473ffffffffffffffffffffffffffffffffffffffff16905090565b60008060019054906101000a900460ff161590508080156105335750600160008054906101000a900460ff1660ff16105b8061056057506105423061106d565b15801561055f5750600160008054906101000a900460ff1660ff16145b5b61059f576040517f08c379a000000000000000000000000000000000000000000000000000000000815260040161059690611665565b60405180910390fd5b60016000806101000a81548160ff021916908360ff16021790555080156105dc576001600060016101000a81548160ff0219169083151502179055505b6106506040518060400160405280600881526020017f48617070794170650000000000000000000000000000000000000000000000008152506040518060400160405280600381526020017f4850410000000000000000000000000000000000000000000000000000000000815250611090565b6106586110ed565b80156106b15760008060016101000a81548160ff0219169083151502179055507f7f26b83ff96e1f2b6a682f133852f6798a09c465da95921460cefb384740249860016040516106a891906116ca565b60405180910390a15b50565b6060603780546106c39061155f565b80601f01602080910402602001604051908101604052809291908181526020018280546106ef9061155f565b801561073c5780601f106107115761010080835404028352916020019161073c565b820191906000526020600020905b81548152906001019060200180831161071f57829003601f168201915b5050505050905090565b6000806107516108ea565b9050600061075f82866107e0565b9050838110156107a4576040517f08c379a000000000000000000000000000000000000000000000000000000000815260040161079b90611757565b60405180910390fd5b6107b182868684036108f2565b60019250505092915050565b6000806107c86108ea565b90506107d5818585610b47565b600191505092915050565b6000603460008473ffffffffffffffffffffffffffffffffffffffff1673ffffffffffffffffffffffffffffffffffffffff16815260200190815260200160002060008373ffffffffffffffffffffffffffffffffffffffff1673ffffffffffffffffffffffffffffffffffffffff16815260200190815260200160002054905092915050565b61086f610dc9565b600073ffffffffffffffffffffffffffffffffffffffff168173ffffffffffffffffffffffffffffffffffffffff16036108de576040517f08c379a00000000000000000000000000000000000000000000000000000000081526004016108d5906117e9565b60405180910390fd5b6108e781610fa7565b50565b600033905090565b600073ffffffffffffffffffffffffffffffffffffffff168373ffffffffffffffffffffffffffffffffffffffff1603610961576040517f08c379a00000000000000000000000000000000000000000000000000000000081526004016109589061187b565b60405180910390fd5b600073ffffffffffffffffffffffffffffffffffffffff168273ffffffffffffffffffffffffffffffffffffffff16036109d0576040517f08c379a00000000000000000000000000000000000000000000000000000000081526004016109c79061190d565b60405180910390fd5b80603460008573ffffffffffffffffffffffffffffffffffffffff1673ffffffffffffffffffffffffffffffffffffffff16815260200190815260200160002060008473ffffffffffffffffffffffffffffffffffffffff1673ffffffffffffffffffffffffffffffffffffffff168152602001908152602001600020819055508173ffffffffffffffffffffffffffffffffffffffff168373ffffffffffffffffffffffffffffffffffffffff167f8c5be1e5ebec7d5bd14f71427d1e84f3dd0314c0f7b2291e5b200ac8c7c3b92583604051610aae91906113f4565b60405180910390a3505050565b6000610ac784846107e0565b90507fffffffffffffffffffffffffffffffffffffffffffffffffffffffffffffffff8114610b415781811015610b33576040517f08c379a0000000000000000000000000000000000000000000000000000000008152600401610b2a90611979565b60405180910390fd5b610b4084848484036108f2565b5b50505050565b600073ffffffffffffffffffffffffffffffffffffffff168373ffffffffffffffffffffffffffffffffffffffff1603610bb6576040517f08c379a0000000000000000000000000000000000000000000000000000000008152600401610bad90611a0b565b60405180910390fd5b600073ffffffffffffffffffffffffffffffffffffffff168273ffffffffffffffffffffffffffffffffffffffff1603610c25576040517f08c379a0000000000000000000000000000000000000000000000000000000008152600401610c1c90611a9d565b60405180910390fd5b610c30838383611146565b6000603360008573ffffffffffffffffffffffffffffffffffffffff1673ffffffffffffffffffffffffffffffffffffffff16815260200190815260200160002054905081811015610cb7576040517f08c379a0000000000000000000000000000000000000000000000000000000008152600401610cae90611b2f565b60405180910390fd5b818103603360008673ffffffffffffffffffffffffffffffffffffffff1673ffffffffffffffffffffffffffffffffffffffff1681526020019081526020016000208190555081603360008573ffffffffffffffffffffffffffffffffffffffff1673ffffffffffffffffffffffffffffffffffffffff1681526020019081526020016000206000828254610d4c91906115bf565b925050819055508273ffffffffffffffffffffffffffffffffffffffff168473ffffffffffffffffffffffffffffffffffffffff167fddf252ad1be2c89b69c2b068fc378daa952ba7f163c4a11628f55a4df523b3ef84604051610db091906113f4565b60405180910390a3610dc384848461114b565b50505050565b610dd16108ea565b73ffffffffffffffffffffffffffffffffffffffff16610def6104d8565b73ffffffffffffffffffffffffffffffffffffffff1614610e45576040517f08c379a0000000000000000000000000000000000000000000000000000000008152600401610e3c90611b9b565b60405180910390fd5b565b600073ffffffffffffffffffffffffffffffffffffffff168273ffffffffffffffffffffffffffffffffffffffff1603610eb6576040517f08c379a0000000000000000000000000000000000000000000000000000000008152600401610ead90611c07565b60405180910390fd5b610ec260008383611146565b8060356000828254610ed491906115bf565b9250508190555080603360008473ffffffffffffffffffffffffffffffffffffffff1673ffffffffffffffffffffffffffffffffffffffff1681526020019081526020016000206000828254610f2a91906115bf565b925050819055508173ffffffffffffffffffffffffffffffffffffffff16600073ffffffffffffffffffffffffffffffffffffffff167fddf252ad1be2c89b69c2b068fc378daa952ba7f163c4a11628f55a4df523b3ef83604051610f8f91906113f4565b60405180910390a3610fa36000838361114b565b5050565b6000606560009054906101000a900473ffffffffffffffffffffffffffffffffffffffff16905081606560006101000a81548173ffffffffffffffffffffffffffffffffffffffff021916908373ffffffffffffffffffffffffffffffffffffffff1602179055508173ffffffffffffffffffffffffffffffffffffffff168173ffffffffffffffffffffffffffffffffffffffff167f8be0079c531659141344cd1fd0a4f28419497f9722a3daafe3b4186f6b6457e060405160405180910390a35050565b6000808273ffffffffffffffffffffffffffffffffffffffff163b119050919050565b600060019054906101000a900460ff166110df576040517f08c379a00000000000000000000000000000000000000000000000000000000081526004016110d690611c99565b60405180910390fd5b6110e98282611150565b5050565b600060019054906101000a900460ff1661113c576040517f08c379a000000000000000000000000000000000000000000000000000000000815260040161113390611c99565b60405180910390fd5b6111446111c3565b565b505050565b505050565b600060019054906101000a900460ff1661119f576040517f08c379a000000000000000000000000000000000000000000000000000000000815260040161119690611c99565b60405180910390fd5b81603690816111ae9190611e8a565b5080603790816111be9190611e8a565b505050565b600060019054906101000a900460ff16611212576040517f08c379a000000000000000000000000000000000000000000000000000000000815260040161120990611c99565b60405180910390fd5b61122261121d6108ea565b610fa7565b565b600081519050919050565b600082825260208201905092915050565b60005b8381101561125e578082015181840152602081019050611243565b60008484015250505050565b6000601f19601f8301169050919050565b600061128682611224565b611290818561122f565b93506112a0818560208601611240565b6112a98161126a565b840191505092915050565b600060208201905081810360008301526112ce818461127b565b905092915050565b600080fd5b600073ffffffffffffffffffffffffffffffffffffffff82169050919050565b6000611306826112db565b9050919050565b611316816112fb565b811461132157600080fd5b50565b6000813590506113338161130d565b92915050565b6000819050919050565b61134c81611339565b811461135757600080fd5b50565b60008135905061136981611343565b92915050565b60008060408385031215611386576113856112d6565b5b600061139485828601611324565b92505060206113a58582860161135a565b9150509250929050565b60008115159050919050565b6113c4816113af565b82525050565b60006020820190506113df60008301846113bb565b92915050565b6113ee81611339565b82525050565b600060208201905061140960008301846113e5565b92915050565b600080600060608486031215611428576114276112d6565b5b600061143686828701611324565b935050602061144786828701611324565b92505060406114588682870161135a565b9150509250925092565b600060ff82169050919050565b61147881611462565b82525050565b6000602082019050611493600083018461146f565b92915050565b6000602082840312156114af576114ae6112d6565b5b60006114bd84828501611324565b91505092915050565b6114cf816112fb565b82525050565b60006020820190506114ea60008301846114c6565b92915050565b60008060408385031215611507576115066112d6565b5b600061151585828601611324565b925050602061152685828601611324565b9150509250929050565b7f4e487b7100000000000000000000000000000000000000000000000000000000600052602260045260246000fd5b6000600282049050600182168061157757607f821691505b60208210810361158a57611589611530565b5b50919050565b7f4e487b7100000000000000000000000000000000000000000000000000000000600052601160045260246000fd5b60006115ca82611339565b91506115d583611339565b92508282019050808211156115ed576115ec611590565b5b92915050565b7f496e697469616c697a61626c653a20636f6e747261637420697320616c72656160008201527f647920696e697469616c697a6564000000000000000000000000000000000000602082015250565b600061164f602e8361122f565b915061165a826115f3565b604082019050919050565b6000602082019050818103600083015261167e81611642565b9050919050565b6000819050919050565b6000819050919050565b60006116b46116af6116aa84611685565b61168f565b611462565b9050919050565b6116c481611699565b82525050565b60006020820190506116df60008301846116bb565b92915050565b7f45524332303a2064656372656173656420616c6c6f77616e63652062656c6f7760008201527f207a65726f000000000000000000000000000000000000000000000000000000602082015250565b600061174160258361122f565b915061174c826116e5565b604082019050919050565b6000602082019050818103600083015261177081611734565b9050919050565b7f4f776e61626c653a206e6577206f776e657220697320746865207a65726f206160008201527f6464726573730000000000000000000000000000000000000000000000000000602082015250565b60006117d360268361122f565b91506117de82611777565b604082019050919050565b60006020820190508181036000830152611802816117c6565b9050919050565b7f45524332303a20617070726f76652066726f6d20746865207a65726f2061646460008201527f7265737300000000000000000000000000000000000000000000000000000000602082015250565b600061186560248361122f565b915061187082611809565b604082019050919050565b6000602082019050818103600083015261189481611858565b9050919050565b7f45524332303a20617070726f766520746f20746865207a65726f20616464726560008201527f7373000000000000000000000000000000000000000000000000000000000000602082015250565b60006118f760228361122f565b91506119028261189b565b604082019050919050565b60006020820190508181036000830152611926816118ea565b9050919050565b7f45524332303a20696e73756666696369656e7420616c6c6f77616e6365000000600082015250565b6000611963601d8361122f565b915061196e8261192d565b602082019050919050565b6000602082019050818103600083015261199281611956565b9050919050565b7f45524332303a207472616e736665722066726f6d20746865207a65726f20616460008201527f6472657373000000000000000000000000000000000000000000000000000000602082015250565b60006119f560258361122f565b9150611a0082611999565b604082019050919050565b60006020820190508181036000830152611a24816119e8565b9050919050565b7f45524332303a207472616e7366657220746f20746865207a65726f206164647260008201527f6573730000000000000000000000000000000000000000000000000000000000602082015250565b6000611a8760238361122f565b9150611a9282611a2b565b604082019050919050565b60006020820190508181036000830152611ab681611a7a565b9050919050565b7f45524332303a207472616e7366657220616d6f756e742065786365656473206260008201527f616c616e63650000000000000000000000000000000000000000000000000000602082015250565b6000611b1960268361122f565b9150611b2482611abd565b604082019050919050565b60006020820190508181036000830152611b4881611b0c565b9050919050565b7f4f776e61626c653a2063616c6c6572206973206e6f7420746865206f776e6572600082015250565b6000611b8560208361122f565b9150611b9082611b4f565b602082019050919050565b60006020820190508181036000830152611bb481611b78565b9050919050565b7f45524332303a206d696e7420746f20746865207a65726f206164647265737300600082015250565b6000611bf1601f8361122f565b9150611bfc82611bbb565b602082019050919050565b60006020820190508181036000830152611c2081611be4565b9050919050565b7f496e697469616c697a61626c653a20636f6e7472616374206973206e6f74206960008201527f6e697469616c697a696e67000000000000000000000000000000000000000000602082015250565b6000611c83602b8361122f565b9150611c8e82611c27565b604082019050919050565b60006020820190508181036000830152611cb281611c76565b9050919050565b7f4e487b7100000000000000000000000000000000000000000000000000000000600052604160045260246000fd5b60008190508160005260206000209050919050565b60006020601f8301049050919050565b600082821b905092915050565b600060088302611d4a7fffffffffffffffffffffffffffffffffffffffffffffffffffffffffffffffff82611d0d565b611d548683611d0d565b95508019841693508086168417925050509392505050565b6000611d87611d82611d7d84611339565b61168f565b611339565b9050919050565b6000819050919050565b611da183611d6c565b611db5611dad82611d8e565b848454611d1a565b825550505050565b600090565b611dca611dbd565b611dd5818484611d98565b505050565b5b81811015611df957611dee600082611dc2565b600181019050611ddb565b5050565b601f821115611e3e57611e0f81611ce8565b611e1884611cfd565b81016020851015611e27578190505b611e3b611e3385611cfd565b830182611dda565b50505b505050565b600082821c905092915050565b6000611e6160001984600802611e43565b1980831691505092915050565b6000611e7a8383611e50565b9150826002028217905092915050565b611e9382611224565b67ffffffffffffffff811115611eac57611eab611cb9565b5b611eb6825461155f565b611ec1828285611dfd565b600060209050601f831160018114611ef45760008415611ee2578287015190505b611eec8582611e6e565b865550611f54565b601f198416611f0286611ce8565b60005b82811015611f2a57848901518255600182019150602085019450602081019050611f05565b86831015611f475784890151611f43601f891682611e50565b8355505b6001600288020188555050505b50505050505056fea26469706673582212200a439eac3acba7ed528971efd76d30656d0257140b27d6021ae1eb1db2e861d064736f6c63430008110033",
  "linkReferences": {},
  "deployedLinkReferences": {}
}