{
  "_format": "hh-sol-artifact-1",
  "contractName": "UnsafeV2",
  "sourceName": "contracts/Unsafe_V2.sol",
  "abi": [
    {
      "inputs": [
        {
          "internalType": "uint256",
          "name": "_x",
          "type": "uint256"
        }
      ],
      "stateMutability": "nonpayable",
      "type": "constructor"
    },
    {
      "anonymous": false,
      "inputs": [
        {
          "indexed": false,
          "internalType": "uint8",
          "name": "version",
          "type": "uint8"
        }
      ],
      "name": "Initialized",
      "type": "event"
    },
    {
      "inputs": [],
      "name": "MY_CONSTANT",
      "outputs": [
        {
          "internalType": "uint256",
          "name": "",
          "type": "uint256"
        }
      ],
      "stateMutability": "view",
      "type": "function"
    },
    {
      "inputs": [],
      "name": "MY_IMMUTABLE",
      "outputs": [
        {
          "internalType": "uint256",
          "name": "",
          "type": "uint256"
        }
      ],
      "stateMutability": "view",
      "type": "function"
    },
    {
      "inputs": [],
      "name": "inc",
      "outputs": [],
      "stateMutability": "nonpayable",
      "type": "function"
    },
    {
      "inputs": [],
      "name": "owner",
      "outputs": [
        {
          "internalType": "address",
          "name": "",
          "type": "address"
        }
      ],
      "stateMutability": "view",
      "type": "function"
    },
    {
      "inputs": [],
      "name": "safeNewStateVar",
      "outputs": [
        {
          "internalType": "address",
          "name": "",
          "type": "address"
        }
      ],
      "stateMutability": "view",
      "type": "function"
    },
    {
      "inputs": [],
      "name": "start",
      "outputs": [
        {
          "internalType": "uint256",
          "name": "",
          "type": "uint256"
        }
      ],
      "stateMutability": "view",
      "type": "function"
    },
    {
      "inputs": [],
      "name": "val",
      "outputs": [
        {
          "internalType": "uint256",
          "name": "",
          "type": "uint256"
        }
      ],
      "stateMutability": "view",
      "type": "function"
    }
  ],
  "bytecode": "0x60a060405234801561001057600080fd5b506040516103eb3803806103eb8339818101604052810190610032919061007b565b8060808181525050506100a8565b600080fd5b6000819050919050565b61005881610045565b811461006357600080fd5b50565b6000815190506100758161004f565b92915050565b60006020828403121561009157610090610040565b5b600061009f84828501610066565b91505092915050565b6080516103286100c3600039600061015d01526103286000f3fe608060405234801561001057600080fd5b506004361061007d5760003560e01c8063500d35c31161005b578063500d35c3146100c85780638da5cb5b146100e6578063be9a655514610104578063f8a874bf146101225761007d565b8063371303c0146100825780633bc72e5e1461008c5780633c6bb436146100aa575b600080fd5b61008a610140565b005b61009461015b565b6040516100a191906101f6565b60405180910390f35b6100b261017f565b6040516100bf91906101f6565b60405180910390f35b6100d0610185565b6040516100dd9190610252565b60405180910390f35b6100ee6101ab565b6040516100fb9190610252565b60405180910390f35b61010c6101d1565b60405161011991906101f6565b60405180910390f35b61012a6101d7565b60405161013791906101f6565b60405180910390f35b6001806000828254610152919061029c565b92505081905550565b7f000000000000000000000000000000000000000000000000000000000000000081565b60015481565b600460009054906101000a900473ffffffffffffffffffffffffffffffffffffffff1681565b600260009054906101000a900473ffffffffffffffffffffffffffffffffffffffff1681565b60035481565b61031581565b6000819050919050565b6101f0816101dd565b82525050565b600060208201905061020b60008301846101e7565b92915050565b600073ffffffffffffffffffffffffffffffffffffffff82169050919050565b600061023c82610211565b9050919050565b61024c81610231565b82525050565b60006020820190506102676000830184610243565b92915050565b7f4e487b7100000000000000000000000000000000000000000000000000000000600052601160045260246000fd5b60006102a7826101dd565b91506102b2836101dd565b9250827fffffffffffffffffffffffffffffffffffffffffffffffffffffffffffffffff038211156102e7576102e661026d565b5b82820190509291505056fea2646970667358221220d2333304e5c55d25d6fa276d7edae3ab193babd2be0b61ca2dc666aa33d4a9c464736f6c634300080a0033",
  "linkReferences": {},
  "deployedLinkReferences": {}
}